:020000040800F2
:1000000000000220253100084D0B0008530B0008AA
:10001000590B00085F0B0008650B0008000000008A
:100020000000000000000000000000006B0B000852
:10003000790B000800000000870B0008950B0008F2
:1000400075310008753100087531000875310008F8
:1000500075310008753100087531000875310008E8
:1000600075310008753100087531000875310008D8
:1000700075310008753100087531000875310008C8
:10008000753100087531000875310008610C0008F1
:10009000750C0008890C00089D0C000875310008DB
:1000A0007531000875310008753100087531000898
:1000B0007531000875310008753100087531000888
:1000C0007531000875310008753100087531000878
:1000D0007531000875310008753100087531000868
:1000E000A50B00087531000875310008753100084E
:1000F000753100084D0C0008753100087531000895
:100100007531000875310008753100087531000837
:100110007531000875310008753100087531000827
:100120007531000875310008753100087531000817
:100130007531000800000000000000007531000863
:1001400075310008753100087531000875310008F7
:1001500075310008753100087531000875310008E7
:1001600075310008753100087531000875310008D7
:100170007531000875310008753100080000000075
:1001800000000000753100080000000000000000C1
:100190007531000800000000000000007531000803
:1001A00000000000000000000000000075310008A1
:1001B0007531000875310008753100087531000887
:0401C000753100088D
:1001C40010B5054C237833B9044B13B10448AFF38D
:1001D40000800123237010BD0C00002000000000EB
:1001E400D031000808B5034B1BB103490348AFF3F2
:1001F400008008BD0000000010000020D03100087D
:1002040053B94AB9002908BF00281CBF4FF0FF3179
:100214004FF0FF3000F07AB9ADF1080C6DE904CE6F
:1002240000F006F8DDF804E0DDE9022304B07047CD
:100234002DE9F0478C460D460446089E002B51D10B
:100244008A4217466DD9B2FA82FEBEF1000F0BD076
:10025400CEF1200C01FA0EF520FA0CFC02FA0EF78E
:100264004CEA050C00FA0EF44FEA174A250CBCFBC5
:10027400FAF81FFA87F90AFB18CC45EA0C4508FB83
:1002840009F3AB420AD9ED1908F1FF3280F023815A
:10029400AB4240F22081A8F102083D44ED1AA4B219
:1002A400B5FBFAF00AFB105544EA054400FB09F9D2
:1002B400A14509D9E41900F1FF3380F00A81A14571
:1002C40040F2078102383C44A4EB090440EA0840A8
:1002D4000021002E61D024FA0EF4002334607360F0
:1002E400BDE8F0878B4207D9002E54D0002186E860
:1002F40021000846BDE8F087B3FA83F1002940F0F5
:100304008E80AB4202D3824200F2FA80841A65EBFB
:1003140003050120AC46002E3FD086E81010BDE84E
:10032400F08712B90127B7FBF2F7B7FA87FEBEF1DF
:10033400000F34D1EB1B3A0C1FFA87FC0121B3FBED
:10034400F2F8250C02FB183345EA03450CFB08F3CD
:10035400AB4207D9ED1908F1FF3002D2AB4200F2EB
:10036400D1808046ED1AA3B2B5FBF2F002FB105522
:1003740043EA05440CFB00FCA44507D9E41900F149
:10038400FF3302D2A44500F2B8801846A4EB0C0453
:1003940040EA08409DE731463046BDE8F087CEF19B
:1003A400200405FA0EF307FA0EF720FA04F83A0CC3
:1003B40025FA04F448EA0308B4FBF2F14FEA1845BD
:1003C40002FB11441FFA87FC45EA044501FB0CF3C8
:1003D400AB4200FA0EF409D9ED1901F1FF3080F0B7
:1003E4008A80AB4240F2878002393D44EB1A1FFAFF
:1003F40088F5B3FBF2F002FB103345EA034500FB3A
:100404000CF3AB4207D9ED1900F1FF386FD2AB42C0
:100414006DD902383D44EB1A40EA01418FE7C1F13E
:10042400200722FA07F88B4005FA01F448EA03038F
:1004340020FA07FE4FEA134CFD404EEA040EB5FBCA
:10044400FCF94FEA1E440CFB19551FFA83F844EAE1
:10045400054509FB08F4AC4202FA01F200FA01FA7C
:1004640008D9ED1809F1FF3043D2AC4241D9A9F1C2
:1004740002091D442D1B1FFA8EFEB5FBFCF00CFB7C
:1004840010554EEA054400FB08F8A04507D9E418C6
:1004940000F1FF3529D2A04527D902381C4440EA8F
:1004A4000940A4EB0804A0FB02894C45C6464D460E
:1004B40015D312D056B1BAEB0E0364EB050404FA5B
:1004C40007F7CB401F43CC40376074600021BDE880
:1004D400F0871846F8E69046E0E6C245EAD2B8EB63
:1004E400020E69EB03050138E4E72846D7E74046E6
:1004F40091E78146BEE7014678E702383C4445E788
:10050400084608E7A8F102083D442BE7704700BFFE
:1005140080B588B008AF00F0DBFB00F045F800F0D0
:10052400EBF800F0B3F81D4B07931C4B06931C4BE0
:1005340005931B4B04930E2303930123029301237E
:10054400019300230093002301220421154802F0A3
:1005540091FD0023079340F2FF7306930023059354
:1005640040F2231304930E230393012302930023E5
:10057400019300230093012301220021094802F082
:1005840079FD0221074800F0ECFF0346002B01D05F
:1005940000F01CF9034802F045FDFEE7F0FFFF1FE1
:1005A40012DA451F6800002080B594B000AF07F14F
:1005B4001C0334220021184602F000FE07F1080350
:1005C40000221A605A609A60DA601A6100237B6024
:1005D4002C4A2C4B1B6C43F080531364294B1B6C2B
:1005E40003F080537B607B6800233B60264A264BE4
:1005F4001B6843F440431360234B1B6803F44043DC
:100604003B603B680123FB614FF480333B62022370
:100614007B634FF48003BB630423FB63B4233B6419
:1006240002237B640223BB640223FB6407F11C03E3
:10063400184601F073FF0346002B01D000F0C6F802
:1006440001F02EFC0346002B01D000F0BFF80F236D
:10065400BB600223FB6000233B614FF4A0537B612A
:100664004FF48053BB6107F108030521184601F0DC
:1006740067FC0346002B01D000F0A8F800BF5037F8
:10068400BD4680BD003802400070004080B500AF18
:10069400174B184A1A60164B14225A60144B002246
:1006A4009A60134B0022DA60114B4FF460221A61F6
:1006B4000F4B4FF480125A610D4B00221A760C4BEB
:1006C40001225A760A4B01229A76094B0022DA76E5
:1006D400074B00221A77064B00225A77044800F091
:1006E40039FB0346002B01D000F070F800BF80BD39
:1006F400680000200064004080B588B000AF07F1B6
:100704000C0300221A605A609A60DA601A610023AE
:10071400BB602B4A2A4B1B6B43F004031363284B27
:100724001B6B03F00403BB60BB6800237B60244A9B
:10073400234B1B6B43F080031363214B1B6B03F0B0
:1007440080037B607B6800233B601D4A1C4B1B6B52
:1007540043F0020313631A4B1B6B03F002033B6069
:100764003B6800228121174801F05CFB4FF40053E1
:10077400FB604FF488133B6100237B6107F10C039A
:100784001946114801F0A4F944F28103FB600123E6
:100794003B6100237B610023BB6107F10C03194615
:1007A400084801F095F900220021282001F066F99B
:1007B400282001F07FF900BF2037BD4680BD00BF6F
:1007C40000380240000402400008024080B400AF38
:1007D40072B6FEE780B483B000AF786000BF0C3718
:1007E400BD465DF8047B704780B483B000AF786089
:1007F40000BF0C37BD465DF8047B704780B483B0FE
:1008040000AF786000BF0C37BD465DF8047B7047CD
:1008140080B483B000AF786000BF0C37BD465DF88C
:10082400047B704780B483B000AF786000BF0C379E
:10083400BD465DF8047B704780B483B000AF786038
:1008440000BF0C37BD465DF8047B704780B582B0AD
:1008540000AF78600021284802F0F4FB274B1A7897
:10086400274BA3FB021359080B465B000B44D31A16
:10087400DBB2012B0BD101220121224801F0D2FA73
:1008840000224FF481411F4801F0CCFA30E01B4BA9
:100894001A781B4BA3FB021359080B465B000B444D
:1008A400D31ADBB2022B0BD101228021154801F0AF
:1008B400B9FA002244F20101124801F0B3FA17E038
:1008C4000E4B1A780E4BA3FB021359080B465B0020
:1008D4000B44D31ADBB2002B0AD101224FF480411E
:1008E400084801F09FFA00228121064801F09AFA93
:1008F40000BF0837BD4680BD6800002060000020AE
:10090400ABAAAAAA0004024080B483B000AF786006
:1009140000BF0C37BD465DF8047B704780B483B0DC
:1009240000AF786000BF0C37BD465DF8047B7047AC
:1009340080B483B000AF786000BF0C37BD465DF86B
:10094400047B704780B483B000AF786000BF0C377D
:10095400BD465DF8047B704780B483B000AF786017
:1009640000BF0C37BD465DF8047B704780B483B08C
:1009740000AF786000BF0C37BD465DF8047B70475C
:1009840080B582B000AF78607B681B68044A9342EC
:1009940001D100F0BFF900BF0837BD4680BD00BFDC
:1009A4000020004080B582B000AF00237B60104A75
:1009B4000F4B5B6C43F4804353640D4B5B6C03F44B
:1009C40080437B607B6800233B60094A084B1B6CB7
:1009D40043F080531364064B1B6C03F080533B605D
:1009E4003B68072001F03FF800BF0837BD4680BDD3
:1009F4000038024080B58AB000AF786007F1140374
:100A040000221A605A609A60DA601A617B681B6877
:100A14001D4A934234D100233B611C4A1B4B1B6C7F
:100A240043F000731364194B1B6C03F000733B61B8
:100A34003B690023FB60154A144B1B6B43F0020314
:100A44001363124B1B6B03F00203FB60FB684FF450
:100A540040737B610223BB610023FB6103233B6280
:100A640009237B6207F114031946094801F030F8A1
:100A740001220021142001F001F8142001F01AF8D9
:100A840000BF2837BD4680BD0064004000380240E6
:100A94000004024080B58CB000AF78600023FB6294
:100AA4000023BB62002279682D2000F0E7FF2D208F
:100AB40001F000F80023FB601F4A1F4B1B6C43F43A
:100AC400807313641C4B1B6C03F48073FB60FB6822
:100AD40007F1100207F114031146184601F036FB22
:100AE40001F020FB03465B00FB62FB6A134AA2FB96
:100AF40003239B0C013BBB62114B124A1A60104B3F
:100B040040F2E732DA600E4ABB6A53600C4B0022B3
:100B14001A610B4B00229A60094801F09DFF0346BD
:100B2400002B04D1064801F0F1FF034600E0012345
:100B340018463037BD4680BD0038024083DE1B4373
:100B4400C40000200020004080B400AFFEE780B461
:100B540000AFFEE780B400AFFEE780B400AFFEE76D
:100B640080B400AFFEE780B400AF00BFBD465DF8BF
:100B7400047B704780B400AF00BFBD465DF8047BC2
:100B8400704780B400AF00BFBD465DF8047B70477A
:100B940080B400AF00BFBD465DF8047B7047000021
:100BA40080B586B004AF4FF4005001F055F94FF40E
:100BB40000511F4801F01EF90346002B33D000BF3B
:100BC4004FF400511A4801F015F90346002BF7D1F0
:100BD40000237B6002E07B6801337B607B68154AFD
:100BE4009342F8DD144B1B780133DAB2124B1A70BE
:100BF400114B1A78114B1A70104B02930123019375
:100C04000023009300234FF4AB7200210C4802F040
:100C1400D1F900233B6002E03B6801333B603B6851
:100C2400084A9342F8DD00BF0837BD4680BD00BFC7
:100C3400000802407F841E00280000205800002085
:100C4400680000207F96980080B500AF024801F04C
:100C5400CDFF00BF80BD00BFC400002080B500AF41
:100C6400024800F0A4FC00BF80BD00BF6800002063
:100C740080B500AF024800F09AFC00BF80BD00BF01
:100C84006800002080B500AF024800F090FC00BF6F
:100C940080BD00BF6800002080B500AF024800F0AE
:100CA40086FC00BF80BD00BF6800002080B400AF98
:100CB400064A064BD3F8883043F47003C2F88830F0
:100CC40000BFBD465DF8047B704700BF00ED00E047
:100CD40080B500AF0E4A0E4B1B6843F400731360DB
:100CE4000B4A0B4B1B6843F480631360084A084BA0
:100CF4001B6843F480731360032000F0B4FE0F20DC
:100D0400FFF7C8FEFFF74EFE0023184680BD00BF64
:100D1400003C024080B400AF064B1B781A46064BD9
:100D24001B681344044A136000BFBD465DF8047B8E
:100D3400704700BF080000200C01002080B400AF01
:100D4400034B1B681846BD465DF8047B704700BF23
:100D54000C01002080B584B000AF78607B68002B64
:100D640001D10123ECE07B6893F82030DBB2002B47
:100D740002D17868FFF73EFE7B681B687A681268C8
:100D8400126842F001021A60FFF7D8FFF86012E01F
:100D9400FFF7D4FF0246FB68D31A0A2B0BD97B68F2
:100DA4005B6A43F400327B685A627B68052283F8ED
:100DB40020200123C4E07B681B685B6803F0010307
:100DC400002BE5D07B681B687A681268126822F0F1
:100DD40002021A60FFF7B2FFF86012E0FFF7AEFFFD
:100DE4000246FB68D31A0A2B0BD97B685B6A43F46F
:100DF40000327B685A627B68052283F82020012335
:100E04009EE07B681B685B6803F00203002BE5D15E
:100E14007B681B7E012B08D17B681B687A6812688B
:100E2400126842F080021A6007E07B681B687A68E7
:100E34001268126822F080021A607B685B7E012BC4
:100E440008D17B681B687A681268126842F0400215
:100E54001A6007E07B681B687A681268126822F0DF
:100E640040021A607B689B7E012B08D17B681B685B
:100E74007A681268126842F020021A6007E07B6800
:100E84001B687A681268126822F020021A607B6874
:100E9400DB7E012B08D17B681B687A6812681268B4
:100EA40022F010021A6007E07B681B687A681268F7
:100EB400126842F010021A607B681B7F012B08D174
:100EC4007B681B687A681268126842F008021A602C
:100ED40007E07B681B687A681268126822F00802CF
:100EE4001A607B685B7F012B08D17B681B687A687A
:100EF4001268126842F004021A6007E07B681B68FB
:100F04007A681268126822F004021A607B681B680F
:100F14007A6891687A68D26811437A6812691143D1
:100F24007A68526911437A685268013A0A43DA616D
:100F34007B6800225A627B68012283F82020002308
:100F440018461037BD4680BD80B487B000AF7860C6
:100F540039607B681B687B617B6893F82030FB7485
:100F6400FB7C012B03D0FB7C022B40F0BE80654B45
:100F74007B617B69D3F8003243F001027B69C3F8DB
:100F840000227B69D3F8003223F47C527B69C3F8D6
:100F940000227B69D3F800223B685B6A1B021A4378
:100FA4007B69C3F800223B685B6903F01F030122DD
:100FB40002FA03F3FB607B69D3F81C22FB68DB4372
:100FC4001A407B69C3F81C223B68DB69002B23D1E0
:100FD4007B69D3F80C22FB68DB431A407B69C3F8B6
:100FE4000C223B685A693B68DB6819043B685B6800
:100FF4009BB219437B69483243F832103B685B6902
:101004003A68926811043A68126892B20A4379699C
:101014004833DB000B445A603B68DB69012B22D167
:101024007B69D3F80C22FB681A437B69C3F80C2252
:101034003B685A693B681B6819043B685B689BB250
:1010440019437B69483243F832103B685B693A685C
:10105400926811043A68D26892B20A4379694833B3
:10106400DB000B445A603B689B69002B09D17B6908
:10107400D3F80422FB68DB431A407B69C3F80422DB
:1010840007E07B69D3F80422FB681A437B69C3F841
:1010940004223B681B69002B09D17B69D3F8142215
:1010A400FB68DB431A407B69C3F8142207E07B69C1
:1010B400D3F81422FB681A437B69C3F814223B68F3
:1010C4001B6A012B07D17B69D3F81C22FB681A43E6
:1010D4007B69C3F81C227B69D3F8003223F0010238
:1010E4007B69C3F80022002306E07B685B6A43F453
:1010F40080227B685A62012318461C37BD465DF87E
:10110400047B70470064004080B584B000AF786011
:101114007B6893F82030DBB2012B2ED17B6802224E
:1011240083F820207B681B687A681268126822F0B2
:1011340001021A60FFF702FEF86012E0FFF7FEFDFD
:101144000246FB68D31A0A2B0BD97B685B6A43F40B
:1011540000327B685A627B68052283F820200123D1
:1011640012E07B681B685B6803F00103002BE5D188
:101174007B6800225A62002306E07B685B6A43F4C2
:1011840000227B685A62012318461037BD4680BD91
:1011940080B489B000AFF860B9607A603B60FB68E6
:1011A40093F82030FB77FB681B689B68BB61FB7F6F
:1011B400012B03D0FB7F022B40F0B480BB6903F00A
:1011C4008063002B0AD1BB6903F00063002B05D1B7
:1011D400BB6903F08053002B00F09C80BB691B0E9D
:1011E40003F003037B617B69022B07D9FB685B6A0D
:1011F40043F40002FB685A6201239AE001227B69EE
:101204009A403B681A60BB689B68002B0DD1FB6851
:101214001968BB681B685A05BB68DB681A437B699D
:1012240018331B010B441A600FE0FB681968BB6894
:101234005B68DA00BB689B681A43BB68DB681A43C7
:101244007B6918331B010B441A60FB681968BB687F
:101254001A697B6918331B010B4404331A60BB6899
:101264001B7D012B11D1FB681968FB681A687B6927
:1012740018331B01134404331B6843F480727B69E5
:1012840018331B010B4404331A60FB6819687B682C
:1012940007331B781A067B6806331B781B041A4332
:1012A4007B6805331B781B0213437A680432127877
:1012B4001A437B691B010B4403F5C6731A60FB6870
:1012C40019687B6803331B781A067B6802331B7822
:1012D4001B041A437B6801331B781B0213437A688F
:1012E40012781A437B691B010B4403F5C4731A601B
:1012F400FB681968FB681A687B6918331B0113447F
:101304001B6843F001027B6918331B010B441A600C
:1013140000230EE0FB685B6A43F40012FB685A6228
:10132400012306E0FB685B6A43F48022FB685A628F
:10133400012318462437BD465DF8047B704780B40A
:1013440087B000AFF860B9607A603B60FB6893F8DF
:101354002030FB75FB7D012B03D0FB7D022B40F07D
:10136400F380BB68002B0ED1FB681B68DB6803F0BD
:101374000303002B16D1FB685B6A43F40012FB687D
:101384005A620123E7E0FB681B681B6903F003034F
:10139400002B07D1FB685B6A43F40012FB685A62B6
:1013A4000123D8E0FB681A68BB681B331B01134494
:1013B4001B6803F004027B689A607B689B68002BBF
:1013C4000CD1FB681A68BB681B331B0113441B68F0
:1013D4005B0DC3F30A027B681A600BE0FB681A68B2
:1013E400BB681B331B0113441B68DB0823F06042FA
:1013F4007B685A60FB681A68BB681B331B01134483
:101404001B6803F002027B68DA60FB681A68BB6839
:101414001B331B01134404331B6803F00F027B6866
:101424001A61FB681A68BB681B331B01134404333D
:101434001B681B0ADAB27B689A61FB681A68BB688E
:101444001B331B01134404331B681B0C9AB27B68C7
:101454005A61FB681A68BB681B01134403F5DC730B
:101464001B68DAB23B681A703B680133FA6811688A
:10147400BA6812010A4402F5DC721268120AD2B286
:101484001A703B680233FA681168BA6812010A4498
:1014940002F5DC721268120CD2B21A703B68033384
:1014A400FA681168BA6812010A4402F5DC7212681B
:1014B400120ED2B21A703B680433FA681168BA6823
:1014C40012010A4402F5DE721268D2B21A703B6845
:1014D4000533FA681168BA6812010A4402F5DE722B
:1014E4001268120AD2B21A703B680633FA6811689D
:1014F400BA6812010A4402F5DE721268120CD2B202
:101504001A703B680733FA681168BA6812010A4412
:1015140002F5DE721268120ED2B21A70BB68002B8A
:1015240008D1FB681B68FA681268D26842F020028E
:10153400DA6007E0FB681B68FA681268126942F017
:1015440020021A61002306E0FB685B6A43F48022F0
:10155400FB685A62012318461C37BD465DF8047BBC
:10156400704780B485B000AF786039607B6893F8C9
:101574002030FB73FB7B012B02D0FB7B022B09D1B8
:101584007B681B687A68126851693A680A435A6131
:10159400002306E07B685B6A43F480227B685A621E
:1015A400012318461437BD465DF8047B704780B5A7
:1015B4008AB000AF786000237B627B681B685B693C
:1015C4003B627B681B685B68FB617B681B689B688C
:1015D400BB617B681B68DB687B617B681B681B697C
:1015E4003B617B681B689B69FB603B6A03F00103FA
:1015F400002B7CD0BB6903F00103002B23D07B6854
:101604001B6801229A60BB6903F00203002B03D01C
:101614007868FFF7DFF816E0BB6903F00403002BDA
:1016240004D07B6A43F400637B620CE0BB6903F083
:101634000803002B04D07B6A43F480537B6202E0EE
:101644007868FFF7E5F8BB6903F48073002B24D0B6
:101654007B681B684FF480729A60BB6903F4007363
:10166400002B03D07868FFF7BFF816E0BB6903F4DA
:101674008063002B04D07B6A43F400537B620CE04C
:10168400BB6903F40063002B04D07B6A43F48043FA
:101694007B6202E07868FFF7C5F8BB6903F4803326
:1016A400002B24D07B681B684FF480329A60BB699E
:1016B40003F40033002B03D07868FFF79FF816E09B
:1016C400BB6903F48023002B04D07B6A43F40043FA
:1016D4007B620CE0BB6903F40023002B04D07B6A1B
:1016E40043F480337B6202E07868FFF7A5F83B6A35
:1016F40003F00803002B0CD07B6903F01003002BCC
:1017040007D07B6A43F400737B627B681B681022FA
:10171400DA603B6A03F00403002B0BD07B6903F00F
:101724000803002B06D07B681B680822DA607868FF
:10173400FFF7EAF83B6A03F00203002B09D07B6849
:101744001B68DB6803F00303002B02D07868FFF703
:101754007DF83B6A03F04003002B0CD03B6903F097
:101764001003002B07D07B6A43F480637B627B68A1
:101774001B6810221A613B6A03F02003002B0BD074
:101784003B6903F00803002B06D07B681B68082222
:101794001A617868FFF7CCF83B6A03F01003002B5A
:1017A40009D07B681B681B6903F00303002B02D07C
:1017B4007868FFF7B3F83B6A03F40033002B0BD0CF
:1017C400FB6903F01003002B06D07B681B68102212
:1017D4005A607868FFF7B6F83B6A03F48033002B4D
:1017E4000BD0FB6903F00803002B06D07B681B6851
:1017F40008225A607868FFF7AFF83B6A03F40043A5
:10180400002B75D0FB6903F00403002B6CD03B6AFA
:1018140003F48073002B08D0FB6803F00103002B52
:1018240003D07B6A43F001037B623B6A03F40073D9
:10183400002B08D0FB6803F00203002B03D07B6A63
:1018440043F002037B623B6A03F48063002B08D0FD
:10185400FB6803F00403002B03D07B6A43F004030A
:101864007B623B6A03F40063002B3DD0FB6803F00A
:101874007003002B38D0FB6803F07003302B17D0B3
:10188400302B04D8102B09D0202B0CD024E0502B63
:1018940018D0602B1BD0402B0FD01DE07B6A43F087
:1018A40008037B6218E07B6A43F010037B6213E059
:1018B4007B6A43F020037B620EE07B6A43F04003C3
:1018C4007B6209E07B6A43F080037B6204E07B6A0D
:1018D40043F480737B6200BF7B681B687A6812687C
:1018E400926922F070029A617B681B6804225A6034
:1018F4007B6A002B08D07B685A6A7B6A1A437B6830
:101904005A627868FFF732F800BF2837BD4680BDB9
:1019140080B485B000AF78607B6803F00703FB6098
:101924000C4BDB68BB60BA684FF6FF031340BB6027
:10193400FB681A02BB68134343F0BF6343F40033EC
:10194400BB60044ABB68D36000BF1437BD465DF872
:10195400047B704700ED00E080B400AF044BDB680B
:101964001B0A03F007031846BD465DF8047B704765
:1019740000ED00E080B483B000AF0346FB7197F93B
:101984000730002B0BDB094997F907305B09FA791B
:1019940002F01F02012000FA02F241F8232000BFE6
:1019A4000C37BD465DF8047B704700BF00E100E0E2
:1019B40080B483B000AF03463960FB7197F90730F8
:1019C400002B0ADB0D4997F907303A68D2B21201AD
:1019D400D2B20B4483F800230AE00949FB7903F0EF
:1019E4000F03043B3A68D2B21201D2B20B441A7606
:1019F40000BF0C37BD465DF8047B704700E100E092
:101A040000ED00E080B489B000AFF860B9607A609E
:101A1400FB6803F00703FB61FB69C3F10703042BB5
:101A240028BF0423BB61FB690433062B02D9FB697D
:101A3400033B00E000237B610122BB6902FA03F34C
:101A44005A1EBB681A407B699A4001217B6901FADE
:101A540003F3591E7B680B40134318462437BD46D5
:101A64005DF8047B704780B582B000AF7860786819
:101A7400FFF74EFF00BF0837BD4680BD80B586B076
:101A840000AF0346B9607A60FB7300237B61FFF704
:101A940063FF78617A68B9687869FFF7B3FF024633
:101AA40097F90F3011461846FFF782FF00BF183729
:101AB400BD4680BD80B582B000AF0346FB7197F987
:101AC40007301846FFF756FF00BF0837BD4680BDF4
:101AD40080B489B000AF7860396000237B61002353
:101AE4003B610023BB610023FB6165E10122FB69CB
:101AF40002FA03F37B613B681A687B6913403B611C
:101B04003A697B699A4240F054813B685B6803F010
:101B14000303012B05D03B685B6803F00303022B2E
:101B240030D17B689B68BB61FB695B00032202FACE
:101B340003F3DB43BA691340BB613B68DA68FB69B2
:101B44005B0002FA03F3BA691343BB617B68BA69A9
:101B54009A607B685B68BB610122FB6902FA03F34C
:101B6400DB43BA691340BB613B685B681B0903F044
:101B74000102FB6902FA03F3BA691343BB617B6890
:101B8400BA695A603B685B6803F00303032B17D000
:101B94007B68DB68BB61FB695B00032202FA03F329
:101BA400DB43BA691340BB613B689A68FB695B001D
:101BB40002FA03F3BA691343BB617B68BA69DA605A
:101BC4003B685B6803F00303022B23D1FB69DA084B
:101BD4007B68083253F82230BB61FB6903F00703CA
:101BE4009B000F2202FA03F3DB43BA691340BB6183
:101BF4003B681A69FB6903F007039B0002FA03F3CD
:101C0400BA691343BB61FB69DA087B680832B969B6
:101C140043F822107B681B68BB61FB695B000322ED
:101C240002FA03F3DB43BA691340BB613B685B68A8
:101C340003F00302FB695B0002FA03F3BA6913437E
:101C4400BB617B68BA691A603B685B6803F4403324
:101C5400002B00F0AE800023FB605C4A5B4B5B6CA6
:101C640043F480435364594B5B6C03F48043FB603F
:101C7400FB68574AFB699B08023352F82330BB6167
:101C8400FB6903F003039B000F2202FA03F3DB4317
:101C9400BA691340BB617B684E4A934225D07B6886
:101CA4004D4A93421FD07B684C4A934219D07B68BB
:101CB4004B4A934213D07B684A4A93420DD07B68C7
:101CC400494A934207D07B68484A934201D106238C
:101CD4000CE007230AE0052308E0042306E00323BD
:101CE40004E0022302E0012300E00023FA6902F089
:101CF400030292009340BA691343BB613449FB6900
:101D04009B080233BA6941F82320394B1B68BB6135
:101D14003B69DB43BA691340BB613B685B6803F40E
:101D24008033002B03D0BA693B691343BB61304A4B
:101D3400BB6913602E4B5B68BB613B69DB43BA69CB
:101D44001340BB613B685B6803F40033002B03D092
:101D5400BA693B691343BB61254ABB695360244B91
:101D64009B68BB613B69DB43BA691340BB613B6859
:101D74005B6803F48013002B03D0BA693B691343F7
:101D8400BB611B4ABB699360194BDB68BB613B6950
:101D9400DB43BA691340BB613B685B6803F400131F
:101DA400002B03D0BA693B691343BB61104ABB697A
:101DB400D360FB690133FB61FB690F2B7FF696AEA1
:101DC40000BF2437BD465DF8047B704700380240ED
:101DD40000380140000002400004024000080240B4
:101DE400000C02400010024000140240001802409F
:101DF400003C014080B485B000AF78600B467B8026
:101E04007B681A697B881340002B02D00123FB7383
:101E140001E00023FB73FB7B18461437BD465DF8D5
:101E2400047B704780B483B000AF78600B467B803E
:101E340013467B707B78002B03D07A887B689A6189
:101E440003E07B881A047B689A6100BF0C37BD46A7
:101E54005DF8047B7047000080B582B000AF034694
:101E6400FB80084B5A69FB881340002B06D0054AB7
:101E7400FB885361FB88184600F006F800BF08375A
:101E8400BD4680BD003C014080B483B000AF034632
:101E9400FB8000BF0C37BD465DF8047B7047000033
:101EA40080B582B000AF00237B6000233B60204AF2
:101EB4001F4B1B6C43F0805313641D4B1B6C03F0CE
:101EC40080533B603B681B4B01221A60FEF736FFD0
:101ED400786009E0FEF732FF02467B68D31AB3F557
:101EE4007A7F01D903231FE0134B5B6803F480332B
:101EF400B3F5803FEED1114B01221A60FEF71EFFAD
:101F0400786009E0FEF71AFF02467B68D31AB3F53E
:101F14007A7F01D9032307E0074B5B6803F400339E
:101F2400B3F5003FEED1002318460837BD4680BD07
:101F34000038024040000E420070004044000E424F
:101F440080B584B000AF786039607B68002B01D124
:101F54000123CCE0684B1B6803F00F023B689A42F4
:101F64000CD2654B3A68D2B21A70634B1B6803F00B
:101F74000F023B689A4201D00123B8E07B681B68DA
:101F840003F00203002B20D07B681B6803F00403DA
:101F9400002B05D0594A594B9B6843F4E053936096
:101FA4007B681B6803F00803002B05D0534A534B8E
:101FB4009B6843F4604393605049504B9B6823F003
:101FC400F0027B689B6813438B607B681B6803F09B
:101FD4000103002B44D07B685B68012B07D1474B7E
:101FE4001B6803F40033002B19D101237FE07B68C5
:101FF4005B68022B03D07B685B68032B07D13F4BE4
:102004001B6803F00073002B09D101236FE03B4BE5
:102014001B6803F00203002B01D1012367E0374959
:10202400364B9B6823F003027B685B6813438B6029
:10203400FEF784FEF8600AE0FEF780FE0246FB68C5
:10204400D31A41F28832934201D903234FE02B4B38
:102054009B6803F00C027B685B689B009A42EBD19F
:10206400254B1B6803F00F023B689A420CD9224BA4
:102074003A68D2B21A70204B1B6803F00F023B6817
:102084009A4201D0012332E07B681B6803F0040309
:10209400002B08D01949194B9B6823F4E0527B6844
:1020A400DB6813438B607B681B6803F00803002B19
:1020B40009D01249114B9B6823F460427B681B6969
:1020C400DB0013438B6000F073F801460B4B9B68F5
:1020D4001B0903F00F030A4AD35C21FA03F3094AEC
:1020E4001360094B1B681846FEF7D4FC00231846FE
:1020F4001037BD4680BD00BF003C0240003802409E
:10210400E8310008000000200400002080B400AF83
:10211400034B1B681846BD465DF8047B704700BF3F
:102124000000002080B500AFFFF7F0FF0146054B2B
:102134009B689B0A03F00703034AD35C21FA03F369
:10214400184680BD00380240F831000880B483B0DE
:1021540000AF786039607B680F221A60124B9B686D
:1021640003F003027B685A600F4B9B6803F0F00294
:102174007B689A600C4B9B6803F4E0527B68DA60DE
:10218400094B9B68DB0803F4E0527B681A61074B38
:102194001B6803F00F023B681A6000BF0C37BD4692
:1021A4005DF8047B704700BF00380240003C0240E9
:1021B4002DE9F04FA1B000AF00237B670023FB673C
:1021C40000233B670023FB660023BB67A04B9B688F
:1021D40003F00C030C2B00F2938101A252F823F0BC
:1021E4001922000805250008052500080525000812
:1021F4001F220008052500080525000805250008FC
:1022040025220008052500080525000805250008E5
:10221400A12300088F4BBB6775E18F4BBB6772E14D
:102224008B4B5B6803F03F037B67894B5B6803F46C
:102234008003002B56D0864B5B689B094FF000044B
:1022440040F2FF114FF0000201EA030102EA040226
:102254000B46144660017866786E40EAD36078666F
:102264005B013B66D7E918345B1A64EB0204A001F6
:10227400F865F86D40EA9360F8659801B865D7E9A8
:102284001656ED1A66EB04063346DB007B657B6D60
:10229400284643EA50737B652B46DB003B65D7E950
:1022A40014341D4626466B1846EB02041846214694
:1022B4000B465B02FB64FB6C024643EAD253FB64AD
:1022C40003465B02BB64D7E91234184621467B6F90
:1022D4004FF000041A462346FDF792FF03460C46CE
:1022E400FB674DE05A4B5B689B094FF0000440F2DA
:1022F400FF114FF0000201EA030102EA04020B4657
:10230400144660017864786C40EAD36078645B01B9
:102314003B64D7E910345B1A64EB02044FEA841B74
:102324004BEA936B4FEA831ABAEB030A6BEB040B89
:102334004FEACB03FB63FB6B43EA5A73FB634FEA3D
:10234400CA03BB63D7E90EAB1AEB010A4BEB020BD2
:102354004FEA8B237B637B6B43EA9A537B634FEA9D
:102364008A233B63D7E90CAB504659467B6F4FF049
:1023740000041A462346FDF743FF03460C46FB6759
:10238400334B5B681B0C03F0030301335B003B67B7
:10239400FA6F3B6FB2FBF3F3BB67B4E02C4B5B68A3
:1023A40003F03F037B672A4B5B6803F48003002B35
:1023B40054D0274B5B689B094FF0000440F2FF1197
:1023C4004FF0000201EA030102EA04020B4614463C
:1023D4006001F862F86A40EAD360F8625B01BB62AC
:1023E400D7E90A345B1A64EB02044FEA841949EA18
:1023F40093694FEA8318B8EB030869EB04094FEAC1
:10240400C9037B627B6A43EA58737B624FEAC80361
:102414003B62D7E9088918EB010849EB02094FEA46
:102424004923FB61FB6943EAD853FB614FEA482324
:10243400BB61D7E90689404649467B6F4FF00004EB
:102444001A462346FDF7DCFE03460C46FB674BE0C9
:10245400003802400024F40000127A002D4B5B681F
:102464009B094FF0000440F2FF114FF0000201EA13
:10247400030102EA04020B4614466001786178699C
:1024840040EAD36078615B013B61D7E904345B1AAD
:1024940064EB0204A60146EA93669D01ED1A66EB1D
:1024A4000406F300FB60FB6843EA5573FB60EB0032
:1024B400BB60D7E902566D1846EB0206B3027B6097
:1024C4007B6843EA95537B60AB023B6097E860000E
:1024D400284631467B6F4FF000041A462346FDF729
:1024E4008FFE03460C46FB670A4B5B681B0F03F029
:1024F4000703FB66FA6FFB6EB2FBF3F3BB6702E004
:10250400054BBB6700BFBB6F18468437BD46BDE8AB
:10251400F08F00BF003802400024F40080B586B07C
:1025240000AF78607B68002B01D101238DE27B68CA
:102534001B6803F00103002B00F08380944B9B681D
:1025440003F00C03042B19D0914B9B6803F00C038C
:10255400082B06D18E4B5B6803F48003B3F5800F20
:102564000CD08B4B9B6803F00C030C2B12D1884BC3
:102574005B6803F48003B3F5800F0BD1844B1B68B5
:1025840003F40033002B5BD07B685B68002B57D1CE
:1025940001235AE27B685B68B3F5803F06D17C4A2D
:1025A4007B4B1B6843F4803313601DE07B685B68DE
:1025B400B3F5A02F0CD1764A754B1B6843F48023E6
:1025C4001360734A724B1B6843F4803313600BE04F
:1025D4006F4A6F4B1B6823F4803313606C4A6C4B57
:1025E4001B6823F4802313607B685B68002B13D083
:1025F400FEF7A4FB386108E0FEF7A0FB02463B6946
:10260400D31A642B01D903231FE2614B1B6803F423
:102614000033002BF0D014E0FEF790FB386108E0A3
:10262400FEF78CFB02463B69D31A642B01D90323C2
:102634000BE2574B1B6803F40033002BF0D100E08E
:1026440000BF7B681B6803F00203002B6FD0504B64
:102654009B6803F00C03002B17D04D4B9B6803F0D1
:102664000C03082B05D14A4B5B6803F48003002B51
:102674000BD0474B9B6803F00C030C2B1CD1444B31
:102684005B6803F48003002B16D1414B1B6803F0F5
:102694000203002B05D07B68DB68012B01D00123EA
:1026A400D3E13B493A4B1B6823F0F8027B681B6972
:1026B400DB0013430B603AE07B68DB68002B20D01F
:1026C400344B01221A60FEF739FB386108E0FEF74B
:1026D40035FB02463B69D31A022B01D90323B4E12B
:1026E4002B4B1B6803F00203002BF0D02849284B26
:1026F4001B6823F0F8027B681B69DB0013430B6043
:1027040015E0244B00221A60FEF718FB386108E03C
:10271400FEF714FB02463B69D31A022B01D90323AB
:1027240093E11B4B1B6803F00203002BF0D17B6881
:102734001B6803F00803002B36D07B685B69002B11
:1027440016D0154B01221A60FEF7F8FA386108E03A
:10275400FEF7F4FA02463B69D31A022B01D903238C
:1027640073E10B4B5B6F03F00203002BF0D01BE013
:10277400094B00221A60FEF7E1FA38610EE0FEF719
:10278400DDFA02463B69D31A022B07D903235CE125
:102794000038024000004742800E47428A4B5B6F7C
:1027A40003F00203002BEAD17B681B6803F00403E7
:1027B400002B00F097800023FB75834B1B6C03F008
:1027C4008053002B0FD10023BB607F4A7E4B1B6CD0
:1027D40043F0805313647C4B1B6C03F08053BB6049
:1027E400BB680123FB75794B1B6803F48073002BD2
:1027F40018D1764A754B1B6843F480731360FEF757
:102804009DFA386108E0FEF799FA02463B69D31A4B
:10281400022B01D9032318E16C4B1B6803F480736A
:10282400002BF0D07B689B68012B06D1664A664B6F
:102834001B6F43F0010313671CE07B689B68052B47
:102844000CD1614A604B1B6F43F0040313675E4A6B
:102854005D4B1B6F43F0010313670BE05A4A5A4B5D
:102864001B6F23F001031367574A574B1B6F23F069
:10287400040313677B689B68002B15D0FEF75EFA90
:1028840038610AE0FEF75AFA02463B69D31A41F26C
:102894008832934201D90323D7E04B4B1B6F03F0DB
:1028A4000203002BEED014E0FEF748FA38610AE088
:1028B400FEF744FA02463B69D31A41F28832934246
:1028C40001D90323C1E0404B1B6F03F00203002B2B
:1028D400EED1FB7D012B05D13B4A3B4B1B6C23F016
:1028E400805313647B689B69002B00F0AD80364BEA
:1028F4009B6803F00C03082B60D07B689B69022B58
:1029040045D1334B00221A60FEF718FA386108E00B
:10291400FEF714FA02463B69D31A022B01D90323AA
:1029240093E0294B1B6803F00073002BF0D1264978
:102934007B68DA697B681B6A1A437B685B6A9B0164
:102944001A437B689B6A5B08013B1B041A437B6840
:10295400DB6A1B061A437B681B6B1B0713434B6024
:102964001B4B01221A60FEF7E9F9386108E0FEF713
:10297400E5F902463B69D31A022B01D9032364E02B
:10298400114B1B6803F00073002BF0D05CE0104B7C
:1029940000221A60FEF7D2F9386108E0FEF7CEF99A
:1029A40002463B69D31A022B01D903234DE0064B9F
:1029B4001B6803F00073002BF0D145E07B689B6932
:1029C400012B07D1012340E0003802400070004091
:1029D400600047421F4B5B68FB607B689B69012B6F
:1029E40030D0FB6803F480027B68DB699A4229D10A
:1029F400FB6803F03F027B681B6A9A4222D1FA68A3
:102A040047F6C07313407A68526A9201934219D10F
:102A1400FB6803F440327B689B6A5B08013B1B0440
:102A24009A420FD1FB6803F070627B68DB6A1B0675
:102A34009A4207D1FB6803F0E0427B681B6B1B07DB
:102A44009A4201D0012300E0002318461837BD46FE
:102A540080BD00BF0038024080B582B000AF78600E
:102A64007B68002B01D1012341E07B6893F83D3062
:102A7400DBB2002B06D17B68002283F83C20786807
:102A840000F039F87B68022283F83D207B681A68DD
:102A94007B6804331946104600F0D8F97B6801229C
:102AA40083F846207B68012283F83E207B6801225C
:102AB40083F83F207B68012283F840207B68012251
:102AC40083F841207B68012283F842207B6801223D
:102AD40083F843207B68012283F844207B68012229
:102AE40083F845207B68012283F83D2000231846A3
:102AF4000837BD4680BD80B483B000AF786000BFA6
:102B04000C37BD465DF8047B7047000080B485B087
:102B140000AF78607B6893F83D30DBB2012B01D0C5
:102B240001234EE07B68022283F83D207B681B680A
:102B34007A681268D26842F00102DA607B681B6826
:102B4400234A934222D07B681B68B3F1804F1DD087
:102B54007B681B681F4A934218D07B681B681E4A17
:102B6400934213D07B681B681C4A93420ED07B6847
:102B74001B681B4A934209D07B681B68194A93421D
:102B840004D07B681B68184A934211D17B681B6888
:102B94009B6803F00703FB60FB68062B10D07B687F
:102BA4001B687A681268126842F001021A6007E032
:102BB4007B681B687A681268126842F001021A6026
:102BC400002318461437BD465DF8047B704700BFE8
:102BD400000001400004004000080040000C0040D8
:102BE40000040140004001400018004080B582B05C
:102BF40000AF78607B681B681B6903F00203022B3B
:102C040022D17B681B68DB6803F00203022B1BD113
:102C14007B681B686FF002021A617B6801221A77D5
:102C24007B681B689B6903F00303002B03D078685F
:102C340000F0EEF805E0786800F0E0F8786800F05D
:102C4400F1F87B6800221A777B681B681B6903F024
:102C54000403042B22D17B681B68DB6803F00403A4
:102C6400042B1BD17B681B686FF004021A617B681C
:102C740002221A777B681B689B6903F44073002B5C
:102C840003D0786800F0C4F805E0786800F0B6F87E
:102C9400786800F0C7F87B6800221A777B681B68A5
:102CA4001B6903F00803082B22D17B681B68DB68CF
:102CB40003F00803082B1BD17B681B686FF0080224
:102CC4001A617B6804221A777B681B68DB6903F04E
:102CD4000303002B03D0786800F09AF805E07868C5
:102CE40000F08CF8786800F09DF87B6800221A7771
:102CF4007B681B681B6903F01003102B22D17B68CF
:102D04001B68DB6803F01003102B1BD17B681B6866
:102D14006FF010021A617B6808221A777B681B68BF
:102D2400DB6903F44073002B03D0786800F070F87B
:102D340005E0786800F062F8786800F073F87B6862
:102D440000221A777B681B681B6903F00103012BBF
:102D54000ED17B681B68DB6803F00103012B07D1EC
:102D64007B681B686FF001021A617868FDF708FE42
:102D74007B681B681B6903F08003802B0ED17B6882
:102D84001B68DB6803F08003802B07D17B681B681A
:102D94006FF080021A61786800F002F97B681B68A2
:102DA4001B6903F04003402B0ED17B681B68DB6872
:102DB40003F04003402B07D17B681B686FF040028F
:102DC4001A61786800F038F87B681B681B6903F0A7
:102DD4002003202B0ED17B681B68DB6803F02003E3
:102DE400202B07D17B681B686FF020021A6178687A
:102DF40000F0CCF800BF0837BD4680BD80B483B076
:102E040000AF786000BF0C37BD465DF8047B7047A7
:102E140080B483B000AF786000BF0C37BD465DF866
:102E2400047B704780B483B000AF786000BF0C3778
:102E3400BD465DF8047B704780B483B000AF786012
:102E440000BF0C37BD465DF8047B704780B485B085
:102E540000AF786039607B681B68FB607B68404A20
:102E6400934213D07B68B3F1804F0FD07B683D4A07
:102E740093420BD07B683C4A934207D07B683B4A21
:102E8400934203D07B683A4A934208D1FB6823F00B
:102E94007003FB603B685B68FA681343FB607B6804
:102EA4002F4A93422BD07B68B3F1804F27D07B68A5
:102EB4002C4A934223D07B682B4A93421FD07B68D1
:102EC4002A4A93421BD07B68294A934217D07B68D5
:102ED400284A934213D07B68274A93420FD07B68D9
:102EE400264A93420BD07B68254A934207D07B68DD
:102EF400244A934203D07B68234A934208D1FB6857
:102F040023F44073FB603B68DB68FA681343FB609F
:102F1400FB6823F080023B685B691343FB607B68BA
:102F2400FA681A603B689A687B68DA623B681A68D8
:102F34007B689A627B680A4A934203D07B680C4A96
:102F4400934203D13B681A697B681A637B68012248
:102F54005A6100BF1437BD465DF8047B704700BF5B
:102F6400000001400004004000080040000C004044
:102F74000004014000400140004401400048014079
:102F840000180040001C00400020004080B483B0C2
:102F940000AF786000BF0C37BD465DF8047B704716
:102FA40080B483B000AF786000BF0C37BD465DF8D5
:102FB400047B704780B584B000AFF860B9607A6074
:102FC4003B60164ABB689360144ABB69D360134ADA
:102FD400FB691361114B9B68002B06D10F4A7B6878
:102FE40013600E4B00225A6009E00C4B9B68042BC3
:102FF40005D10A4B00221A60084A3B685360084B0B
:103004003A6A0649F868FEF7C3F80346002B01D074
:10301400FDF7DCFB00BF1037BD4680BD90000020EB
:103024005400002080B582B000AF78607868FEF765
:103034006BF80346002B01D0FDF7C8FB00BF08372F
:10304400BD4680BD80B582B000AF78603960074B63
:10305400074A39687868FEF772F90346002B01D0F5
:10306400FDF7B4FB00BF0837BD4680BD60000020FB
:10307400A800002080B584B000AFF860B9607A6021
:103084003B60264A7B681362244A3B685361234AA7
:10309400BB691361214AFB699361204A3B6AD3618E
:1030A4001E4A7B6A5362BB68002B10D1BB6A5B016A
:1030B4001A4A1360FB6A5B01184A53603B6B5B015D
:1030C400164A93607B6B5B01144AD36019E0BB68BA
:1030D400042B16D13B6A012B13D1BB6A5B0B0F4A3D
:1030E4001360FB6ADB0043F004030C4A53603B6B40
:1030F4005B0B0A4A93607B6BDB0043F00403074AD3
:10310400D3600649F868FDF71FFF0346002B01D082
:10311400FDF75CFB00BF1037BD4680BD2C000020CE
:10312400DFF834D00D480E490E4A002302E0D4588B
:10313400C4500433C4188C42F9D30B4A0B4C0023FB
:1031440001E013600432A242FBD3FDF7AFFD00F0AF
:1031540011F8FDF7DDF9704700000220000000209F
:103164000C000020103200080C0000201001002088
:10317400FEE7000070B50D4E0D4CA41BA4100025F5
:10318400A54209D10B4E0C4C00F020F8A41BA4104E
:103194000025A54205D170BD56F825309847013564
:1031A400EEE756F8253098470135F2E70832000873
:1031B40008320008083200080C32000802440346B2
:1031C400934200D1704703F8011BF9E7F8B500BF3B
:1031D400F8BC08BC9E467047F8B500BFF8BC08BCF4
:0431E4009E4670474C
:1031E80000000000000000000102030406070809AF
:0831F8000000000001020304C5
:0832000034D0FF7F0100000043
:04320800E9010008D0
:04320C00C5010008F0
:0C3210000024F400100000000100000089
:040000050800312599
:00000001FF
